:1000000000000220750300005D0300005F03000094
:1000100061030000630300006503000000000000AE
:100020000000000000000000000000006703000066
:1000300069030000000000006B0300006D03000076
:100040003D2C00006F030000912C00007D4E00004D
:10005000955000006F0300006F0300004530000062
:100060006F0300006F0300006F0300006F030000C8
:100070006F0300006F0300006F0300006F030000B8
:100080006F0300006F0300006F0300006F030000A8
:100090006F0300006F0300006F0300006F03000098
:1000A0006F0300006F0300006F0300006F03000088
:1000B0006F0300006F03000000000000000000005C
:1000C0006F0300006F0300006F0300006F03000068
:1000D000C93B00006F0300006F0300006F030000C6
:1000E0006F0300000000000000000000000000009E
:1000F000000000006F030000000000006F0300001C
:1001000000000000000000000000000000000000EF
:1001100000000000000000000000000000000000DF
:1001200000000000000000000000000000000000CF
:1001300000000000000000000000000000000000BF
:1001400000000000000000000000000000000000AF
:10015000000000000000000000000000000000009F
:10016000000000000000000000000000000000008F
:10017000000000000000000000000000000000007F
:10018000000000000000000000000000000000006F
:10019000000000000000000000000000000000005F
:1001A000000000000000000000000000000000004F
:1001B000000000000000000000000000000000003F
:1001C000000000000000000000000000000000002F
:1001D000000000000000000000000000000000001F
:1001E000000000000000000000000000000000000F
:1001F00000000000000000000000000000000000FF
:10020000354936480A1A02D0072291438D463449AF
:1002100034480A1A06D00722914381F30988022242
:1002200082F3148830483149314A00F044F83148AB
:100230003149324A00F03FF831483249324A00F041
:100240003AF832483249334A00F035F832483349F7
:10025000334A00F030F833483349344A00F02BF881
:1002600033483449344A00F026F8344834490022EF
:1002700000F02CF833483449002200F027F83348C6
:100280003349091A082902DB002202604160314A21
:1002900090471F481F49884205D00268043003B4C4
:1002A000904703BCF7E700208646EC46002000217B
:1002B000294A9047FEE7884207D0521A05D00378B2
:1002C00001300B700131013AF9D17047884202D0F8
:1002D00002700130FAE770470000022000E00120C0
:1002E0000000022000000220008600000000002024
:1002F00064000020D0030000D00300008C6D0000DB
:10030000008600000000002000000020106E0000A9
:10031000106E0000106E0000106E0000106E0000E5
:10032000106E0000106E0000106E000000860000CD
:100330006486000064000020640000206400002047
:10034000A8090020A8090020A8090020A809002069
:10035000A82900209D0300008D560000FEE7FEE75F
:10036000FEE7FEE7FEE7FEE7FEE7FEE7FEE7FEE765
:1003700000F002B8FFF7FCBF0F484FF007018843B9
:1003800085460E4880470E48016841F470010160BF
:10039000BFF34F8FBFF36F8FFFF732BF09480A4992
:1003A0000A4A884207D0521A05D0037801300B70F0
:1003B0000131013AF9D1704700000220095C0000C8
:1003C00088ED00E0106E000000000020000000201A
:1003D00000B585B00190019B002B0AD0074B43F07C
:1003E00001030393019B9B010293039B029898478F
:1003F00000E000BF05B05DF804FB00BF206E000008
:1004000000B583B00190019B002B0AD04FF47A70A5
:10041000FFF7DEFF019B013B0193019B002BF5D110
:1004200000E000BF03B05DF804FB08B505F0FCFA7E
:1004300000BF08BD00B589B0039002910192019BF5
:10044000002B33D00023079303230693029A079BC4
:100450001344019A1946002005F096FA0590079A70
:10046000059B13440793019A059BD31A0193059B9F
:10047000002B13D10F4B1B7883F00103DBB2002B51
:1004800013D10120FFF7BCFF069B013B0693069B9F
:10049000002B03D1074B00221A7007E0054B012205
:1004A0001A70019B002BD1D100E000BF00BF09B042
:1004B0005DF804FB6400002000B585B00390029154
:1004C000054B00934023054A0299039800F012F867
:1004D00000BF05B05DF804FB350400006800002093
:1004E00082B0019000BF02B0704782B0019000BF9F
:1004F00002B0704700B5A1B0059004910392029339
:10050000049801F087FF039B1593029B1693002329
:10051000179300238DF8603000231993229B1A93C0
:1005200000231F930FA91F9B0822049802F04CF888
:1005300008231F93119B1293BDF84030ADF84C3047
:10054000BDF84230ADF84E3000238DF851309DF8A3
:100550003C3003F00303DBB2012B26D10F9BC3F326
:1005600095231C939DF83C30C3F3C203DBB28DF896
:100570005030BDF83C30C3F38313DBB21B931B9B9D
:100580009A0009A91F9B049802F01EF81B9B9B0070
:100590001F9A13441F9312AA09A915AB009313467F
:1005A0001B9A1C9800F0D6FE2FE09DF83C3003F01B
:1005B0000303DBB2022B28D1BDF83E30C3F389130D
:1005C0009BB21E939DF83C30C3F3C203DBB28DF89F
:1005D00050301E9B082B28BF08231D9307A91F9B83
:1005E0001D9A049801F0F0FF1F9A1D9B13441F935E
:1005F0001E9A1D9BD31A1E9315AB12AA07A81D990C
:1006000000F04AFF1E9B002BE3D1049801F011FF7C
:1006100000BF21B05DF804FB82B00190019BDB6854
:1006200001225A7100BF02B07047000000B583B0CC
:100630004FF0FF330193FFF7F8FE0421084800F064
:10064000A5FD0190019B002B03DA0649412001F032
:10065000DAF80348FFF7E0FF00BF03B05DF804FBE2
:10066000EC6D0000386E000000B583B00190009181
:10067000019B1B681B6800990198984700BF03B055
:100680005DF804FB00B583B00190019B1B685B68BB
:100690000198984700BF03B05DF804FB00B583B034
:1006A0000190019B1B689B680198984700BF03B0AD
:1006B0005DF804FB82B001900B468DF80330019B7E
:1006C000DB689DF803201A7100BF02B0704782B04A
:1006D0000190019BDB681B79184602B0704782B01D
:1006E0000190019BDB6801225A7100BF02B0704784
:1006F00082B00190019BDB685B79184602B07047BD
:1007000000B585B0019000910C4B00221A700C4886
:1007100001F0E4FD0390039B002B01D0039B08E054
:10072000084801F0BDFF084A084BD31ADB080293C2
:100730000023184605B05DF804FB00BF100200203E
:10074000FC6D00008C6E0000EC6D00008C6D0000F4
:10075000024A034BD31ADB0818467047EC6D0000C1
:100760008C6D000000B587B001900B468DF803300A
:100770009DF80330002B1FD0FFF7EAFF0490002301
:10078000059313E0059B9B000E4A13440393039BC0
:100790001B881A46019B1B689A4204D1019B059A4B
:1007A0001A60002309E0059B01330593059A049B19
:1007B0009A42E7D3052300E00023184607B05DF80E
:1007C00004FB00BF0000002000B585B001900B467F
:1007D0008DF803309DF8032001AB11461846FFF752
:1007E000C1FF0346002B07D1019BDB00054A1344E0
:1007F0000393039B1B6800E00023184605B05DF8D7
:1008000004FB00BF8C6D000084B001900B468DF896
:100810000330019BDB00174A134402939DF8033019
:10082000013B032B1CD801A252F823F03D08000025
:10083000450800004D0800005708000002238DF80D
:100840000F3011E004238DF80F300DE0029B1B796F
:100850008DF80F3008E0029B5B798DF80F3003E0D4
:1008600000238DF80F3000BF9DF80F30184604B0FC
:10087000704700BF8C6D000084B001900091002390
:100880008DF80F30019B1B7803F00403DBB2002BC3
:1008900024D0019B1B78C3F30103DBB2012B02D0F0
:1008A000022B0CD017E0009B1B68019A1288C2F340
:1008B0008312D2B213449A1C009B1A600BE0009B77
:1008C0001B68019A5288C2F3891292B213449A1C8F
:1008D000009B1A6000BF01238DF80F309DF80F3088
:1008E000184604B07047000000B58BB00023ADF887
:1008F00026303E4801F014F83D4801F011F83D4B18
:100900009B6804933C4B1B680693049A069B134018
:1009100002339B00374A13440433089304AB19464F
:100920000898FFF7A9FF0346002B09D0049A069BFD
:10093000134002339B002F4A134404330893EDE71E
:1009400000BF0023079311E0049B5A1C0492069AEF
:100950001340079A920001A90A44264902339B00DA
:100960000B445B681360079B01330793079B012BC4
:10097000EAD99DF80430C3F30103DBB2012B10D098
:10098000022B1CD1BDF80A30ADF82630BDF8063078
:10099000C3F389139BB203339A08049B1344049353
:1009A00013E0BDF80A30ADF82630BDF80430C3F3CB
:1009B0008313DBB21A46049B1344049305E00F49EA
:1009C0004FF4C27000F01FFF00BF094800F0B4FFF1
:1009D0000590059B002B02D0049B064A9360BDF84E
:1009E000263018460BB05DF804FB00BF2806002037
:1009F0002406002010020020080000209C6E000049
:100A000000B585B00021074800F013FF0390039B59
:100A10000293029B83F310030193019B184605B0D8
:100A20005DF804FB2C06002000B589B0039002910C
:100A300001920093039B1B0C0793FFF7E1FF0690C5
:100A4000FFF786FE0246079B934204D3214940F2FA
:100A5000A91000F0D8FE069B1904009B5A1C0A9BA3
:100A60001340079A0A431C4902339B000B445A6007
:100A7000009A0A9B134002339B00174A1344043325
:100A80000593039B03F00703D9B2059A137861F32A
:100A9000C5031370019B03F00F03D9B2059A1388A5
:100AA00061F389131380029BC3F31501059A136840
:100AB00061F39F231360059A1378012161F3010309
:100AC0001370059A13786FF38203137000BF09B097
:100AD0005DF804FB9C6E00001002002000BF704710
:100AE00000B58BB00390029113468DF80730039B3D
:100AF0000233089301238DF81F30002000F03CFEE4
:100B00003E4B5A68029B1A603D4B1A683B4B9968F2
:100B10003A4B5B68CB1A13440133099314E001216B
:100B2000384800F0CDFEFFF7DFFE05900599354807
:100B300000F0C6FE324B1A68304B99682F4B5B6849
:100B4000CB1A134401330993089A099B9A42E6D8B9
:100B50009DF81F30002B48D0002304939DF80730E8
:100B6000002B17D09DF81030012262F301038DF89D
:100B700010309DF8103043F004038DF81030039BC3
:100B800003F00F03DAB2BDF8103062F38913ADF849
:100B9000103016E09DF81030022262F301038DF848
:100BA00010309DF8103043F004038DF81030039B93
:100BB000C3F309039AB2BDF8123062F38F13ADF894
:100BC00012300E4B5A680E4B1B68134002339B00C9
:100BD0000A4A134404330693049A069B1A60074B8F
:100BE0005A68089B1344054A5360002000F0D8FD62
:100BF0009DF81F3018460BB05DF804FB1002002072
:100C0000080000202C06002000B58BB00590049150
:100C100003920293204B1B68079306AB01221946EF
:100C20000298FFF75DFF0346002B24D0069B02339A
:100C300009930023089311E0089B9B00039A1A4430
:100C4000099B591C099107990B40126813490233FB
:100C50009B000B445A60089B01330893089A029B3F
:100C60009A42E9D3069A079B00931346029A049985
:100C70000598FFF7D9FE094B1B78002B05D000BF64
:100C800000F080F80346002BFAD1FFF727FF00BFE2
:100C90000BB05DF804FB00BF08000020100200202C
:100CA00000B583B0019000910023002200990198C3
:100CB000FFF7AAFF00BF03B05DF804FB00B587B0E3
:100CC000039002910192019B059305AA01230299C9
:100CD0000398FFF799FF00BF07B05DF804FB00B56C
:100CE00087B00390029101920093019B0493009BB3
:100CF000059304AA022302990398FFF785FF00BF1A
:100D000007B05DF804FB00B589B003900291019231
:100D10000093019B0593009B06930A9B079305AAEA
:100D2000032302990398FFF76FFF00BF09B05DF836
:100D300004FB00B58BB00390029101920093019BDC
:100D40000593009B06930C9B07930D9B08930E9BAA
:100D5000099305AA052302990398FFF755FF00BFE1
:100D60000BB05DF804FB0000054B9A68044B5B6810
:100D70009A420CBF01230023DBB21846704700BF24
:100D80001002002000B599B0FFF7EEFF0346002BDC
:100D900001D00023B9E19B4B0022C3F81824BFF314
:100DA0004F8F00BF974B9B680493974B1B68109322
:100DB000049A109B134002339B00924A134404335D
:100DC0001193002317930023169300230F9304AB72
:100DD00019461198FFF750FD0346002B19D0894B97
:100DE000D3F81834002B14D1864B5A68049B9A42CE
:100DF00005D8844B5B68834A9360002385E1049A9D
:100E0000109B134002339B007E4A1344043311931A
:100E1000DDE70023159311E0049B5A1C0492109AFD
:100E20001340159A920001A90A44764902339B00A7
:100E30000B445B681360159B01331593159B012BC5
:100E4000EAD99DF8043003F00303DBB2022B40F033
:100E50009C80BDF80630C3F389139BB20D93BDF897
:100E60000630C3F389139BB2502B28BF50239BB28B
:100E70000C930C9BC3F309039AB2BDF8063062F3DE
:100E80008F13ADF806300C9B08330B939DF804309C
:100E9000C3F3C203DBB20F930B995C4801F029FA4C
:100EA0001790179B002B00F0D380179801F0B2FA2F
:100EB00001A9169B0822179801F068FB169B0833BE
:100EC0001693049BDA43109B134001339B000A9353
:100ED0000C9A0A9B9A4242D90A9B002B08D0049A8A
:100EE000109B134002339B00464A1344043300E036
:100EF000474B08930A9B002B02D00A9BDBB201E010
:100F00000C9BDBB28DF81F300A9B002B01D0404BAD
:100F100000E0002306930A9B002B06D00C9BDAB25C
:100F20000A9BDBB2D31ADBB200E000238DF8173046
:100F30009DF81F20169B0899179801F027FB9DF834
:100F40001F30169A13441693069B002B16D09DF85B
:100F50001720169B0699179801F018FB0EE0049ACB
:100F6000109B134002339B00264A13440433099319
:100F7000169B0C9A0999179801F008FB0D9B0333F7
:100F80009A08049B1344049362E09DF8043003F034
:100F90000303DBB2012B5BD1BDF80430C3F3831331
:100FA000DBB2062B28BF0623DAB2BDF8043062F3A9
:100FB0008913ADF80430BDF80430C3F38313DBB2FA
:100FC00002330E939DF80430C3F3C203DBB20F93D8
:100FD0000E9B9B0019460D4801F08BF91790179B4B
:100FE000002B35D0179801F015FA01A9169B08229D
:100FF000179801F0CBFA169B08331693002315932C
:101000001DE000BF1002002008000020FC6D000061
:101010001C020020049B5A1C0492109A13400233B5
:101020009B003C4A1344191D169B0422179801F09B
:10103000ADFA169B04331693159B01331593BDF837
:101040000430C3F38313DBB21A46159B9342E1D3FA
:10105000179B002B39D02F4BD3F8103414932D4B02
:10106000D3F81834002B1BD0179801F0E2F946E0B2
:1010700000238DF84F301498FFF73AFB0346002BFE
:1010800002D001238DF84F309DF84F30002B03D054
:1010900017991498FFF7E8FA149BDB681B68149300
:1010A000149B002BE4D1179801F0C3F9002000F045
:1010B00063FB184BD3F81834002B02D1049B154A5C
:1010C0009360002000F06CFB19E0124BD3F8103451
:1010D000129306E01298FFF7E1FA129BDB681B6897
:1010E0001293129B002BF5D10B4A0C4BD31ADB0841
:1010F0001B0443F002030A491846FFF7D1FDFFF72E
:1011000033FE034683F00103DBB2184619B05DF8E5
:1011100004FB00BF10020020D46D00008C6D0000A5
:10112000E86E000000B585B00023039323E0164B62
:10113000D3F81034029301238DF807300FE00298A2
:10114000FFF7C5FA03461A46039B934203D10023D7
:101150008DF8073006E0029BDB681B680293029B58
:10116000002BECD19DF80730002B01D0039B07E04A
:10117000039B01330393039B092BD8DD4FF0FF330F
:10118000184605B05DF804FB1002002000B585B0DC
:1011900001900B468DF80330FFF7C4FF0390039BCB
:1011A000B3F1FF3F01D1039B22E0039BDBB2194661
:1011B0000198FFF77FFA104BD3F81034002B08D1B9
:1011C0000D4A019BC2F81034019BDB6800221A60B3
:1011D0000DE0094BD3F81034DA68019BDB68126824
:1011E0001A60054BD3F81034DB68019A1A60039B30
:1011F000184605B05DF804FB1002002000B583B06E
:101200000C4BD3F8103401930A4B01221A7009E0F9
:101210000198FFF764FA0198FFF734FA019BDB6845
:101220001B680193019B002BF2D100BF00BF03B0EC
:101230005DF804FB1002002082B00190009100BF15
:1012400002B0704710B584B003900291039BDB8815
:10125000002B0AD0039BDB881A461F4B00931346D2
:101260001E4A1F49029800F095FC039B1B7A052B30
:101270002ED0039B5B7A002B12D0039B9B881A46CF
:10128000039B1B7A19461046FFF7BEFA03461A461F
:10129000144B53F822301A461349029800F07AFC96
:1012A000039B1B6819460298FFF7C6FF039B1B7A36
:1012B0001A460E4B53F82240039B9B880021184688
:1012C000FFF782FA034622460949029800F062FCC1
:1012D00000BF04B010BD00BF1C6F00002C6F0000E9
:1012E000646F0000200000207C6F00000C000020D4
:1012F000806F000000B585B00390029113468DF811
:101300000730039B1B7A052B0FD0039B5B7A002BC6
:1013100006D00D4B1B681A460C49029800F03AFCA7
:101320000B49029800F036FC07E09DF80730002BCF
:1013300003D00749029800F02DFC029800F008FC49
:1013400000BF05B05DF804FB200000207C6F0000AA
:101350008C6F000030B58BB0079006910592049316
:101360000E9B1B7B8DF827300E9B00221A730E9963
:101370000498FFF767FF059B062B7FD801A252F860
:1013800023F000BFA1130000AB130000BB1300004B
:10139000CF130000ED1300001514000045140000E9
:1013A00007990E9800F0F6FB69E0069B1B681A4649
:1013B00007990E9800F0EEFB61E0069B1A68069B09
:1013C00004331B6807990E9800F0E4FB57E0069B76
:1013D0001A68069B04331968069B08331B68009340
:1013E0000B4607990E9800F0D5FB48E0069B19685C
:1013F000069B04331868069B08331B68069A0C3258
:1014000012680192009303460A4607990E9800F06D
:10141000C1FB34E0069B1868069B04331C68069BDE
:1014200008331B68069A0C32126806991031096855
:101430000291019200932346024607990E9800F00C
:10144000A9FB1CE0069B1C68069B04331D68069BD9
:1014500008331B68069A0C32126806991031096825
:1014600006981430006803900291019200932B4675
:10147000224607990E9800F08DFB00E000BF002285
:101480000E990498FFF736FF0E9B9DF827201A73DC
:1014900000BF0BB030BD00BF00B587B00390029114
:1014A00001920093029B082B60D8009B1B7B8DF858
:1014B0001330009B00221A7300990198FFF7C2FEB7
:1014C0000023059314E0059A029B9A4209D2039ADD
:1014D000059B13441B781A462649009800F05AFBD6
:1014E00003E02549009800F055FB059B0133059367
:1014F000059B072BE7D92149009800F04BFB0023FF
:10150000059326E0059A029B9A421BD2039A059BFB
:1015100013441B788DF812309DF812307E2B0AD8B8
:101520009DF81230184605F0B1FB0346002B02D09F
:101530009DF8123000E02E231A461149009800F061
:1015400029FB03E00F49009800F024FB059B0133C1
:101550000593059B072BD5D9012200990198FFF728
:10156000C9FE009B9DF813201A7300E000BF07B06E
:101570005DF804FB906F0000986F00009C6F000006
:10158000A06F0000A46F000086B00390029101924A
:1015900001238DF817309DF81730204A039B136004
:1015A0001E4A029B53601D4A019B9360039B44F2B9
:1015B0000102934212D0039B44F20202934220D1D3
:1015C000019B164AD360154BDB681B68134A936175
:1015D000124BDB685B68114AD36112E0019B0F4A32
:1015E00013610E4B1B699B680C4A53610B4B1B69C3
:1015F0001B680A4A9361094B1B695B68074AD36100
:1016000000BF72B600BF00BF9DF81730DBB2002BE1
:10161000FAD162B600BF00BF06B0704730060020A6
:1016200000B583B002900091019244F2010071462E
:101630006A4600F003F803B000BD00BF30B58BB0C0
:1016400007900691059272B600BFFFF7D7FD00BF65
:10165000FFF798FB0346002BFAD1079B44F20102E7
:10166000934216D0079B44F2020293423ED1059B5F
:1016700009932C4A2C4BD31ADB081B0443F00100BE
:10168000099B5B681A46099B1B682849FFF727FBE3
:1016900039E0059B0893234A234BD31ADB081B042C
:1016A00043F00104089B9D68089B9B68184601F065
:1016B00015F803461846089B5B681946089B1B688B
:1016C000069A02920193009103462A461849204641
:1016D000FFF72FFB134A144BD31ADB081B0443F00C
:1016E000010314491846FFF7DBFA0CE00D4A0E4BD4
:1016F000D31ADB081B0443F00103069A0E4918466F
:10170000FFF7DCFA00BF0D4B1B6803F00103002B51
:1017100000D000BE059A06990798FFF735FF00BF75
:101720000BB030BDD46D00008C6D0000A86F0000C0
:10173000C46F0000EC6F000000700000F0ED00E0EE
:1017400072B600BF034B1B680133024A136000BF2F
:10175000704700BF50060020064B1B68013B054A3E
:101760001360044B1B68002B01D162B600BF00BFA1
:10177000704700BF5006002000B583B0019000F014
:1017800025F80346012B03D00449432000F03BF821
:10179000FFF7D6FF00BF03B05DF804FB1870000030
:1017A00000B583B003468DF8073000F00FF803460C
:1017B000012B03D00449512000F025F8FFF7CCFF9E
:1017C00000BF03B05DF804FB1870000084B0EFF3B5
:1017D00005830193019BC3F308030393039B002B31
:1017E0000DD1EFF314830093009B0293029B03F04F
:1017F0000103002B0CBF01230023DBB200E0012317
:10180000184604B0704700B585B003460091ADF8A6
:101810000630BDF806300293009B039302AB1A46D4
:10182000002144F20200FFF709FF00BF05B05DF898
:1018300004FB10B487B001900091019B009A53E81B
:10184000004F104643E8000191F0000FF7D10594D6
:1018500004900391059B184607B05DF8044B704750
:1018600010B487B001900091019B009A53E8004F9B
:1018700044EA020043E8000191F0000FF6D105941C
:1018800004900391049B184607B05DF8044B704721
:1018900010B487B001900091019B009A53E8004F6B
:1018A00004EA020043E8000191F0000FF6D105942C
:1018B00004900391059B184607B05DF8044B7047F0
:1018C00010B487B001900091019B009A53E8004F3B
:1018D00004EB020043E8000191F0000FF6D10594FB
:1018E00004900391049B184607B05DF8044B7047C1
:1018F00010B487B001900091019B009A53E8004F0B
:10190000A4EB020043E8000191F0000FF6D105942A
:1019100004900391049B184607B05DF8044B704790
:1019200000B583B0019001210198FFF799FF0346AC
:10193000184603B05DF804FB00B583B001900021A8
:101940000198FFF7A5FF0346184603B05DF804FBB6
:1019500000B583B001900B468DF80330019B002B3E
:1019600003D10849E820FFF74EFF019BDA689DF894
:1019700003300199098A01FB03F31344184603B0AD
:101980005DF804FB6470000000B583B00190009125
:10199000019B002B03D10849F520FFF734FF009B82
:1019A000019AD2689B1A019A128AB3FBF2F3DBB256
:1019B000184603B05DF804FB6470000000B585B004
:1019C0000190019B002B01D10E234CE0019B1B6871
:1019D000002B03D12649FF20FFF715FF019B5B6811
:1019E000002B04D122494FF48070FFF70CFF019BBC
:1019F0009B68002B04D11E4940F20110FFF703FF42
:101A0000019BDB68002B04D119494FF48170FFF76B
:101A1000FAFE019B1B8A002B04D1154940F20310EA
:101A2000FFF7F1FE019B9A68019B5B68D31A8DF862
:101A30000F30019B1B68019A52681A6007E0019BF6
:101A40001A681368591C11609DF80F201A709DF8D0
:101A50000F305A1E8DF80F20002BF0D1019B1B6810
:101A600000221A710023184605B05DF804FB00BF80
:101A70006470000000B585B00190019B002B04D17B
:101A80001C494FF49270FFF7BEFE00230393002021
:101A9000FFF772FE019B1B681A68019B5B689A4204
:101AA0001FD9019B1B681A68013A1A601B681B78D2
:101AB00019460198FFF74CFF0390019B9A68019B20
:101AC0001B681B68D31A8DF80B30019B1B681B79B0
:101AD0009DF80B209A4204D9019B1B689DF80B20AE
:101AE0001A710020FFF75CFE039B184605B05DF8F5
:101AF00004FB00BF6470000010B584B00190009139
:101B0000019B002B04D1114940F24710FFF77BFEE7
:101B1000009B002B04D10D494FF4A470FFF773FE16
:101B2000009B03930020FFF727FE019B1B681C68A6
:101B3000621C1A6003990198FFF726FF0346237081
:101B40000020FFF72DFE00BF04B010BD6470000040
:101B500000B583B00190019B002B03D10C493120CB
:101B6000FFF751FE019B9B68002B0CD0019B5B692A
:101B7000019A1069019A1168019A92689847019B2D
:101B800000229A6000E000BF03B05DF804FB00BFD4
:101B9000A87000000EB400B584B00190019B002B2A
:101BA00003D118494220FFF72EFE019B5B69002BF1
:101BB00003D114494320FFF726FE019B1B68002B2D
:101BC00003D110494420FFF71EFE019B5B68002BE8
:101BD00003D10C494520FFF716FE059B002B0AD0C8
:101BE0000023039306AB039303AB1A4605990198B0
:101BF00000F0B0F900E000BF04B05DF804EB03B002
:101C0000704700BFA870000000B583B001900B467C
:101C10008DF80330019B1A68019B9B68581C019941
:101C2000886013449DF803201A70019B9A68019BF9
:101C30005B689A4202D30198FFF78AFF00BF03B0A6
:101C40005DF804FB00B587B0039002910192009308
:101C500000230593009B03F00103002B24D00BE02D
:101C6000029B01330293059B013305939DF81330CA
:101C700019460398FFF7C8FF029B1B788DF81330B5
:101C80009DF81330002BEBD106E0019B013B019343
:101C900020210398FFF7B8FF019A059B9A422ED99D
:101CA000019B002BF1D12AE0029B002B0BD0029864
:101CB00005F03CF8059006E0019B013B01932021D3
:101CC0000398FFF7A1FF019A059B9A420FD9019B48
:101CD000002BF1D10BE0029B01330293059B0133F2
:101CE00005939DF8133019460398FFF78DFF029B6B
:101CF0001B788DF813309DF81330002BEBD100BF0B
:101D000007B05DF804FB000000B589B003900291B4
:101D100001920093029B07930123069307E0079A21
:101D2000019BB2FBF3F30793069B01330693079ADB
:101D3000019B9A42F3D2009A069B9A4201D9009BDA
:101D400006930B9B03F00103002B22D10A9B002B6F
:101D50001FD00B9B03F00203002B06D0009B002B2F
:101D600003D130238DF8173002E020238DF817308F
:101D700008E00A9B013B0A939DF817301946039827
:101D8000FFF742FF0A9B002B03D0069A0A9B9A4258
:101D9000EFD301230793009B012B03D9009B013B49
:101DA000009309E0029A079BB2FBF3F30493049AB1
:101DB000019B9A4200D205E0079B019A02FB03F3C4
:101DC0000793E8E7029A079BB2FBF3F30493049BA3
:101DD000079A02FB03F3029AD31A0293154A049B53
:101DE00013441B7819460398FFF70EFF079A019BCF
:101DF000B2FBF3F30793079B002BE3D10B9B03F09C
:101E00000103002B11D00A9B002B0ED006E00A9B89
:101E1000013B0A9320210398FFF7F6FE0A9B002B53
:101E200003D0069A0A9B9A42F1D300BF09B05DF82D
:101E300004FB00BF2871000000B589B00590049133
:101E400003920293049B002BB8BF5B4206930123CD
:101E5000079307E0039B069A92FBF3F30693079B15
:101E600001330793039B069A9A42F3DA029A079B7F
:101E70009A4201D9029B07930A9B002B0AD0049B2C
:101E8000002B04DB0B9B03F00403002B02D00A9B06
:101E9000013B0A930B9B03F00203002B02D0029B31
:101EA000002B16D00B9B03F00103002B11D10A9BD2
:101EB000002B0ED006E00A9B013B0A9320210598D7
:101EC000FFF7A2FE0A9B002B03D0079A0A9B9A42B7
:101ED000F1D3049B002B07DA049B5B4204932D2172
:101EE0000598FFF791FE08E00B9B03F00403002B1D
:101EF00003D02B210598FFF787FE0B9B03F002030D
:101F0000002B19D00B9B03F00103002B14D1029B73
:101F1000002B11D10A9B002B0ED006E00A9B013B3F
:101F20000A9330210598FFF76FFE0A9B002B03D020
:101F3000079A0A9B9A42F1D304990B9B01930A9B3F
:101F40000093029B039A0598FFF7DEFE00BF09B0DD
:101F50005DF804FB00B58FB0059004910392059BDA
:101F6000002B04D1AD4940F25220FFF74CFC059BF9
:101F70005B69002B04D1A9494FF41570FFF743FCAE
:101F8000059B1B68002B04D1A44940F25520FFF7A4
:101F90003AFC059B5B68002B04D1A04940F2562017
:101FA000FFF731FC049B002B00F09381049B1B780E
:101FB0008DF83730049B013304939DF83730002BA4
:101FC00000F07E819DF83730252B40F06D81002395
:101FD0000A9301230C93049B1B788DF837309DF8EE
:101FE0003730302B0DD0302B1BDC2B2B11D02D2B71
:101FF00017D10A9B43F001030A93049B0133049316
:1020000012E00A9B43F002030A93049B01330493FA
:102010000AE00A9B43F004030A93049B01330493F0
:1020200002E000230C9300BF0C9B002BD3D10023B4
:1020300009939DF837302A2B0CD1039B1B68191D7F
:10204000039A11601B68099A13440993049B013396
:1020500004931AE0049B1B788DF837309DF83730D5
:102060002F2B12D99DF83730392B0ED8049B013312
:102070000493099A13469B0013445B001A469DF88B
:1020800037301344303B0993D3E700230B93049B71
:102090001B788DF837309DF837302E2B1DD1049BDF
:1020A00001330493049B1B788DF837309DF837304B
:1020B0002F2B12D99DF83730392B0ED8049B0133C2
:1020C00004930B9A13469B0013445B001A469DF839
:1020D00037301344303B0B93E4E7049B1B788DF8B7
:1020E00037309DF837306C2B03D09DF83730682B94
:1020F00007D1049B01330493049B1B788DF8373080
:10210000EFE79DF83730252B00F0C480252BC0F277
:10211000C680782B00F3C380582BC0F2C080583B98
:10212000202B00F2BC8001A252F823F021220000F3
:102130009F2200009F2200009F2200009F2200009B
:102140009F2200009F2200009F2200009F2200008B
:102150009F2200009F220000B1210000D321000037
:102160009F2200009F2200009F2200009F2200006B
:10217000D32100009F2200009F2200009F22000028
:102180009F2200009F2200009F2200006122000089
:102190009F2200009F220000452200009F22000095
:1021A000F72100009F2200009F2200002122000052
:1021B000039B1B68191D039A11601B680C930C9BF1
:1021C0008DF81F309DF81F3019460598FFF71CFD4C
:1021D00066E0039B1B68191D039A11601B680C9332
:1021E0000A9B0193099B00930B9B0A220C9905986B
:1021F000FFF722FE54E0039B1B68191D039A116030
:102200001B680C930C990A9B0193099B00930B9BF1
:102210000A220598FFF778FD42E000BFE470000055
:10222000039B1B68191D039A11601B680C930C9982
:102230000A9B0193099B00930B9B10220598FFF7C3
:1022400063FD2DE0039B1B68191D039A11601B6839
:1022500008930A9B099A08990598FFF7F3FC1FE079
:10226000039B1B68191D039A11601B680C93302196
:102270000598FFF7C9FC78210598FFF7C5FC0C9974
:102280000023019308230093082310220598FFF7E9
:102290003BFD05E025210598FFF7B6FC00E000BFF7
:1022A000049B0133049305E09DF8373019460598E7
:1022B000FFF7AAFC049B1B78002B7FF477AE00E0AD
:1022C00000BF059B1B7B002B04D00598FFF740FC4B
:1022D00000E000BF0FB05DF804FB00BF00B583B0A5
:1022E00001900198FFF76AFB0346184603B05DF8BA
:1022F00004FB00B58BB001900091019B1B8A043B4D
:102300000793009A079B1344DA1C079BB2FBF3F375
:102310008DF81B300198FFF7ADFB0590059B002B56
:1023200001D1002338E0059B00221A71059B012290
:102330005A71079B9AB2059BDA80059B09939DF819
:102340001B30013B0493099B019A1A6000230893F8
:102350001DE00198FFF78EFB0390039B002B0ED02E
:10236000059B5B790133DAB2059B5A71099B039A8D
:102370001A60039B019A1A60039B099304E0059875
:1023800000F00EF8002307E0089B01330893089A39
:10239000049B9A42DDD3059B18460BB05DF804FB05
:1023A00000B58BB00190019B0793079B5B798DF87B
:1023B0001B30019B08939DF81B30013B05930023C4
:1023C000099305E0089B1B680893099B0133099357
:1023D000099A059B9A42F5D3089B1B680493019BBD
:1023E0000893002309930BE0089B1B68039308994B
:1023F0000498FFF781FB039B0893099B0133099322
:102400009DF81B30099A9A42EED300BF00BF0BB073
:102410005DF804FB00B585B00190019B0393039B1D
:10242000043301211846FFF74BFA00BF05B05DF8F1
:1024300004FB00B587B00190019B0593059B043315
:1024400001211846FFF754FA0346039303AB0493A4
:10245000049B1B78002B02D10198FFF7A1FF00BF5E
:1024600007B05DF804FB000000B591B00390029145
:1024700001920093039B002B03D14349B620FFF741
:10248000C2F9039B0993039B0F93099BDB881A46B0
:10249000099B5B7902FB03F3043B0893009A089BBA
:1024A0009A4203D33849C420FFF7ADF9099BDB8872
:1024B0000793009B1A1D079BB2FBF3F30E93009B3F
:1024C0000433079AB3FBF2F2079901FB02F29B1A5D
:1024D0000D93019B1A68009B1344089A9A4203D2F9
:1024E000089A009BD31A01E0019B1B680C93019B87
:1024F0000C9A1A6005E00F9B1B680F930E9B013B23
:102500000E930E9B002BF6D100230B93079A0D9B85
:10251000D31A0A930A9A0C9B934228BF13460A9334
:102520002AE0029A0B9B134406930F9A0D9B1344C7
:10253000043305939DF84830002B05D00A9A05997D
:10254000069804F0A8FB04E00A9A0699059804F09E
:10255000A2FB00230D930F9B1B680F930C9A0A9B01
:10256000D31A0C930B9A0A9B13440B93079A0C9B58
:10257000934228BF13460A930C9B002BD1D100BF76
:1025800000BF11B05DF804FB3871000000B589B0E0
:102590000590049103920293039B079307AA0023DB
:1025A0000093029B04990598FFF75EFF079B039A2F
:1025B0009A4203D00349F620FFF725F900BF09B07E
:1025C0005DF804FB3871000000B589B005900491F6
:1025D00003920293039B079307AA01230093029B94
:1025E00004990598FFF740FF079B039A9A4204D08D
:1025F00004494FF48070FFF706F900BF09B05DF899
:1026000004FB00BF3871000082B003468DF807302C
:102610009DF90730002B0DDB9DF8073003F01F02FA
:1026200006499DF907305B09012000FA02F2603388
:1026300041F8232000BF02B0704700BF00E100E076
:1026400000B583B00020FFF797F8F1EE103A019340
:10265000019B23F09F030093009BE1EE103A00BF23
:10266000BFF35F8F00BF2620FFF7CEFF0020FFF7EC
:1026700097F8019B03F00703002B03D003497D204B
:10268000FFF7C1F800BF03B05DF804FB147200004F
:1026900008B5FFF7D5FF20BF40BF20BF00BF08BD72
:1026A00082B00190019B9B6800229A60019B9B680D
:1026B00000221A61019B9B6800225A61019B9B6862
:1026C0000022DA60019B9B6800225A60019B9B6894
:1026D00000221A6000BF02B07047000000B585B04C
:1026E0000190019800F00EF80390039B002B01D09D
:1026F000039B00E0024B184605B05DF804FB00BFE9
:102700005C72000086B00190164B0593164B049343
:102710001FE0049A059BD31ADB10DA0F13445B10F9
:10272000DB00059A13440393039B1B680293029AF0
:10273000019B9A4202D9039B04930AE0029A019BEF
:102740009A4203D2039B0833059302E0039B5B6824
:1027500004E0059A049B9A42DBD30023184606B096
:10276000704700BF3076000048770000044BD3F874
:102770000034002B14BF01230023DBB2184670473E
:102780000000014000B583B000230193144B1B7877
:10279000002B02D08523019314E0114B00229A6094
:1027A0000F4B00225A600E4B00221A610C4B002284
:1027B000DA600C4800F0F2F9019000F011FA084BD1
:1027C00001221A70FFF7D2FF0346002B02D0044B00
:1027D00001229A70019B184603B05DF804FB00BF0C
:1027E000540600202929000084B001900091019B2B
:1027F0001B68039306E0039A009B9A420DD0039B4B
:102800001B680393039B002BF5D1019B1A68009B67
:102810001A60019B009A1A6000E000BF04B0704784
:1028200084B00190019B1B680393039B002B03D092
:10283000039B1A68019B1A60039B184604B07047FB
:1028400000B583B00190224B1B78002B03D12149A6
:10285000F620FEF7D8FF1E4B9B78DBB2002B12D080
:10286000019B002B03D0019B5B680120984700204F
:10287000FEF782FF164BDB680133154AD360002058
:10288000FEF78EFF17E00020FEF776FF019B002B7E
:1028900003D001991048FFF7A7FF0D4BDB68002B11
:1028A00001D100F0B1F90A4BDB680133084AD3606B
:1028B0000020FEF775FF064BDB68002B04D10549AD
:1028C0004FF48970FEF79FFF00BF03B05DF804FB73
:1028D00054060020507700006406002000B585B043
:1028E00003468DF807309DF80730002B02D10C4BC2
:1028F000039301E00B4B03930398FFF791FF0290C2
:10290000029B002B06D0029B5B689DF807201046B7
:102910009847F1E700BF00BF05B05DF804FB00BFBA
:102920005C0600206406002000B583B003468DF8E5
:1029300007309DF80730002B05D10A4B01225A7051
:102940000020FFF7CBFF9DF80730012B05D1054B89
:1029500001229A700120FFF7C1FF00BF03B05DF8AC
:1029600004FB00BF5406002082B003468DF80730F8
:102970009DF90730002B0CDB9DF8073003F01F0298
:1029800005499DF907305B09012000FA02F241F880
:10299000232000BF02B0704700E100E082B0034690
:1029A00000918DF807309DF90730002B0ADB009B62
:1029B000DAB20C499DF907305201D2B20B4483F8C8
:1029C00000230BE0009BDAB207499DF8073003F0C3
:1029D0000F03043B5201D2B20B441A7600BF02B07F
:1029E000704700BF00E100E000ED00E082B0019020
:1029F000019B1B0B5BB2184602B0704700B583B059
:102A000003460A468DF8073013468DF806309DF8C8
:102A10000630072B03D908496B20FEF7F4FE9DF81A
:102A200006209DF9073011461846FFF7B7FF00BF93
:102A300003B05DF804FB00BF9477000000B583B0DD
:102A400003468DF807309DF907301846FFF78CFFD5
:102A500000BF03B05DF804FB82B003468DF8073079
:102A60000F4A9DF90730002B00DA1F335B115BB270
:102A700052F823209DF90730594203F01F0301F05B
:102A80001F0158BF4B425BB222FA03F303F001036C
:102A9000002B14BF01230023DBB2184602B070479D
:102AA00000E100E082B001904FF08042019BC2F84B
:102AB000043300BF02B0704782B001904FF08042F3
:102AC000019BC2F8083300BF02B0704782B00346D2
:102AD0008DF807309DF8073003F1804301221A601A
:102AE00000BF02B0704784B00346ADF80630BDF8B1
:102AF000063003F1804300221A60BDF8063003F16E
:102B000080431B680393039B00BF04B0704782B0EF
:102B10000346ADF80630BDF8063003F180431B686C
:102B2000002B14BF01230023DBB2184602B070470C
:102B300082B001904FF08042019BC2F8183500BF6F
:102B400002B0704700B583B006238DF807304FF010
:102B50008040FFF74BFF03461846FFF77DFF034613
:102B600083F00103DBB2002B13D04FF08040FFF75E
:102B70003DFF03461A469DF8073019461046FFF7F9
:102B80003DFF4FF08040FFF731FF03461846FFF747
:102B900055FF00BF03B05DF804FB000000B585B031
:102BA0000190019B002B03D10B49A420FEF72BFEC3
:102BB00000230393094B1B79002B02D08523039339
:102BC00005E0064A019B1360044B01221A71039B26
:102BD000184605B05DF804FBCC77000068060020BD
:102BE00008B5074B1B79002B03D10649BD20FEF722
:102BF0000AFEFFF7A7FF0120FFF79AFF00BF08BDFD
:102C000068060020CC77000008B50A4B1B79002B22
:102C100003D10949EA20FEF7F6FD4FF48270FFF771
:102C200062FF0220FFF73EFF0820FFF74FFF00BFC3
:102C300008BD00BF68060020CC77000008B54FF43F
:102C40008070FFF764FF0346002B0AD04FF48070BA
:102C5000FFF749FF0120FFF72FFF0C4B1B680020F7
:102C600098474FF48270FFF752FF0346002B0AD0BB
:102C70004FF48270FFF737FF0220FFF71DFF034B71
:102C80001B680120984700BF08BD00BF68060020F0
:102C900008B5064B1B68002B03D105495120FEF7F0
:102CA000B2FD024B1B68984700BF08BD70060020AC
:102CB0001878000082B00190019B044A934201D130
:102CC000034B00E00023184602B07047002000408C
:102CD0007006002000B587B001900091019B002B89
:102CE00003D118497720FEF78EFD0198FFF7E2FF28
:102CF0000590059B002B1ED000238DF8133000207B
:102D0000FEF73AFD059B1B79002B03D001238DF8BC
:102D1000133005E0059B009A1A60059B01221A7189
:102D20000020FEF73DFD9DF81330002B03D011234A
:102D30000393039B02E000230393039B184607B011
:102D40005DF804FB1878000082B003468DF8073068
:102D50009DF90730002B0CDB9DF8073003F01F02B4
:102D600005499DF907305B09012000FA02F241F89C
:102D7000232000BF02B0704700E100E082B00346AC
:102D800000918DF807309DF90730002B0ADB009B7E
:102D9000DAB20C499DF907305201D2B20B4483F8E4
:102DA00000230BE0009BDAB207499DF8073003F0DF
:102DB0000F03043B5201D2B20B441A7600BF02B09B
:102DC000704700BF00E100E000ED00E000B583B017
:102DD00003460A468DF8073013468DF806309DF8F5
:102DE0000630072B03D908496B20FEF70CFD9DF830
:102DF00006209DF9073011461846FFF7BFFF00BFB8
:102E000003B05DF804FB00BF5C78000000B583B040
:102E100003468DF807309DF907301846FFF794FFF9
:102E200000BF03B05DF804FB00B585B00190019BC5
:102E3000002B0AD0074B43F001030393019B9B0136
:102E40000293039B0298984700E000BF05B05DF82D
:102E500004FB00BF1079000082B003468DF80730F4
:102E60009DF8073003F1804303F5E04301221A6027
:102E700000BF02B0704782B00346ADF80630BDF81F
:102E8000063003F1804303F5E0431B68002B14BFB9
:102E900001230023DBB2184602B0704784B003461A
:102EA000ADF80630BDF8063003F1804303F5E0438A
:102EB00000221A60BDF8063003F1804303F5E043B9
:102EC0001B680393039B00BF04B0704782B00346A6
:102ED0008DF807300B468DF8063013468DF8053017
:102EE0000A499DF807309DF8052051331B010B441A
:102EF00004331A6005499DF807309DF806205133C8
:102F00001B010B441A6000BF02B070470070004004
:102F100082B00190034A019BC2F8043300BF02B0A3
:102F2000704700BF0070004082B00190034A019BCF
:102F3000C2F8083300BF02B0704700BF0070004005
:102F4000024B0122C3F8002500BF7047007000400B
:102F500082B001900091054A019BC2F82C36034AC9
:102F6000009BC2F8303600BF02B0704700700040CE
:102F700082B003468DF80730034A9DF80730C2F847
:102F8000F03500BF02B070470070004082B00346C9
:102F90008DF80730034A9DF80730C2F8F43500BFBA
:102FA00002B0704700700040024BD3F8F435DBB23A
:102FB000184670470070004000B583B0034600918A
:102FC0008DF80730009B1B7803F00302009B5B78B1
:102FD0001B0103F030031A43009B9B781B0203F490
:102FE000E0631A43009BDB781B0303F480531A430E
:102FF000009B1B791B0403F4E0231A43009B5B79BD
:103000001B0503F4801342EA0301009B9B791B0616
:1030100003F080720A489DF807300A431B010344FD
:1030200003F5A3631A60009BD979009B1A7A9DF877
:1030300007301846FFF74AFF00BF03B05DF804FBF6
:103040000070004000B58FB04FF48270FFF713FF9F
:103050000346002B46D04FF48270FFF71FFF904BC2
:1030600093F82E3083F00103DBB2002B04D18C4B9C
:1030700093F82F30002B35D000238DF81C30884B6F
:103080005B680893864B1B899BB2ADF82430844B58
:10309000DB68002B03D1824B00221A7419E0804BAD
:1030A0001A8B7F4B5A837E4BDB687D4A53607C4B87
:1030B0001A8B7B4B1A817A4B0022DA60784B93F89B
:1030C0002E3083F00103DBB2002B02D00020FFF78B
:1030D000C3FE734B1B6807AA10469847704B00222B
:1030E00083F82F206E4B93F82E30002B62D04FF4D4
:1030F0008070FFF7C0FE0346002B5BD04FF480705A
:10310000FFF7CCFE664B5A8B654B93F82D309BB284
:103110009A421CD9624B5A8B614B93F82D309BB26B
:10312000D31A9AB25E4B5A835D4B5A685C4B1B892B
:103130009BB219465A4B5B8BCB1A5B001344584A1F
:1031400092F82D2011461846FFF702FF2BE0544B52
:103150005A8B534B93F82D309BB29A4214D1504B5B
:10316000DB68002B10D04E4B012283F82F204C4BF4
:1031700000225A834A4BDB68494A92F82D201146B7
:103180001846FFF7E5FE0EE0454B5A8B444B93F88B
:103190002D309BB29A4206D1414B012283F82F2059
:1031A0003F4B00225A834FF48270FFF777FE0420D2
:1031B000FFF752FE4FF48870FFF75DFE0346002BC9
:1031C0000ED04FF48870FFF769FE354B00221A7459
:1031D00002238DF81030324B1B6804AA1046984722
:1031E0004FF48A70FFF747FE0346002B07D04FF4D9
:1031F0008A70FFF753FE2A4B00221A744CE0284BCA
:103200005B690D9345E00D9B0A930A9B002B01D14E
:10321000202303E00A9BB3FA83F3DBB20C934FF055
:1032200000420C9B22FA03F3DB430D9A13400D93EB
:103230000C9B9BB246339BB29B00ADF82E30BDF881
:103240002E301846FFF717FE0346002B21D0BDF89D
:103250002E301846FFF722FE01238DF80430BDF80A
:103260002E30A3F58C73DB08DBB28DF80830BDF887
:103270002E30A3F58C7303F00403002B0CBF012345
:103280000023DBB28DF80930054B1B6801AA1046FC
:1032900098470D9B002BB6D100BF0FB05DF804FB23
:1032A0007806002000B585B001900091019B002BAD
:1032B00003D13249D820FEF7A6FA009B002B03D198
:1032C0002E49D920FEF79FFA2D4B93F82C30002B76
:1032D00003D008230393039B4CE0294A009B13600F
:1032E000019B1B781846FFF743FE019B5B7818464D
:1032F000FFF74CFE019BDA78214B83F82E20204B00
:10330000012283F82C201E4B00221A741C4B002231
:1033100083F82D201A4B00225A61194B002283F8A2
:103320002F206FF00040FFF7FFFD4FF48270FFF792
:10333000B5FD4FF48070FFF7B1FD4FF48A70FFF7D1
:10334000ADFD019B9B7819460720FFF73FFD072045
:10335000FFF75CFD0220FFF7DBFD094B93F82E30F1
:10336000002B02D00120FFF7D3FDFFF7E9FD00237A
:103370000393039B184605B05DF804FBC478000076
:103380007806002000B585B0034600918DF807301F
:10339000394B93F82C30002B04D1384940F22510DA
:1033A000FEF731FA9DF80730072B04D933494FF463
:1033B0009370FEF728FAFFF7F7FD0346002B09D0BC
:1033C0002D4B93F82D30002B04D02C494FF49470E2
:1033D000FEF719FA009BDB790D2B03D8009BDB79F4
:1033E000002B04D125494FF49670FEF70CFA009B90
:1033F0001B7A0D2B04D921494FF49770FEF703FA7D
:103400001D4B1B7CDBB2002B03D011230393039BCA
:103410002DE09DF80730184A0C335B0013441B79EC
:10342000002B07D1144B93F82D300133DAB2124B35
:1034300083F82D209DF80730009AD1790E4A0C337D
:103440005B0013440A461A719DF80730009A117AFE
:10345000094A0C335B0013440A465A719DF8073041
:1034600000991846FFF7A8FD00230393039B184615
:1034700005B05DF804FB00BF78060020C4780000AA
:1034800000B589B0034600918DF80730504B1B7C86
:10349000DBB2002B03D011230393039B93E04C4B2F
:1034A00001221A740320FFF73FFD01210098FFF766
:1034B0004FFD474B93F82D30012B0FD90023079375
:1034C00009E0079BDBB2002200211846FFF7FEFC53
:1034D000079B01330793079B072BF2D99DF8073011
:1034E0003B4A0C335B00134419799DF80730384A86
:1034F0000C335B0013445A799DF807301846FFF7E8
:10350000E5FC0020FFF7A8FC0420FFF7A5FC002342
:103510008DF81B3042F2107305934FF48270FFF761
:10352000AAFC0346002B03D001238DF81B3008E0D2
:103530000020FFF779FC059B013B0593059B002BC1
:10354000EBD19DF81B30002B04D122494FF4D270EF
:10355000FEF759F94FF48070FFF7A0FC4FF482702A
:10356000FFF79CFC1A4B93F82D30012B19D900233F
:10357000049313E0049BD8B2154A049B0C335B0000
:1035800013441979124A049B0C335B0013445B7992
:103590001A46FFF79BFC049B01330493049B072B03
:1035A000E8D90B4B93F82E30002B03D00320FFF704
:1035B000AFFC02E00220FFF7ABFC054B00221A74BF
:1035C00000230393039B184609B05DF804FB00BF7A
:1035D00078060020C478000000B583B0134B93F840
:1035E0002C30002B04D1124940F22A20FEF70BF9AF
:1035F0000E4B1B7CDBB2002B03D011230193019BEC
:103600000FE00A4B02221A744FF48870FFF746FC51
:103610001020FFF77DFC0C20FFF71EFC0023019318
:10362000019B184603B05DF804FB00BF780600203C
:10363000C478000082B003468DF807309DF907304A
:10364000002B0CDB9DF8073003F01F0205499DF9A4
:1036500007305B09012000FA02F241F8232000BF85
:1036600002B0704700E100E082B0034600918DF89F
:1036700007309DF90730002B0ADB009BDAB20C49BA
:103680009DF907305201D2B20B4483F800230BE0BE
:10369000009BDAB207499DF8073003F00F03043BA3
:1036A0005201D2B20B441A7600BF02B0704700BF7D
:1036B00000E100E000ED00E000B583B003460A46FB
:1036C0008DF8073013468DF806309DF80630072B2D
:1036D00003D908496B20FEF796F89DF806209DF95E
:1036E000073011461846FFF7BFFF00BF03B05DF873
:1036F00004FB00BF6C7A000000B583B003468DF870
:1037000007309DF907301846FFF794FF00BF03B05C
:103710005DF804FB84B0039002910192039B029A2E
:1037200002F5A872019943F8221000BF04B0704757
:1037300082B001900091019B009AC3F8042300BF5E
:1037400002B0704782B001900091019B009AC3F8CB
:10375000082300BF02B0704782B001900091019B26
:10376000D3F80423009B1340184602B0704782B080
:1037700001900B46ADF80230BDF80230019A1344B7
:103780001B68184602B0704784B001900B46ADF834
:103790000230BDF80230019A134400221A60BDF8CD
:1037A0000230019A13441B680393039B00BF04B0CB
:1037B000704782B00190019BD3F80435184602B0DF
:1037C0007047000000B583B001900091009BB3F5F5
:1037D000805F04D306494FF4BE70FEF714F8019BD6
:1037E000009AC3F8082500BF03B05DF804FB00BFD2
:1037F0009C7A000082B001900B468DF803309DF852
:103800000320019B13441A460123136000BF02B03A
:10381000704782B001900091019B009AC3F8442345
:1038200000BF02B0704782B001900091019B009AE6
:10383000C3F8482300BF02B07047000000B587B04E
:10384000039002910192029B002B03D13149512038
:10385000FDF7D9FF019B002B03D12E495220FDF724
:10386000D2FF039B5B7919462B4A019B42F821301A
:10387000039B5B791946294A0B465B000B441344B2
:103880001B78002B03D008230593059B3DE0039B89
:1038900093F90420029B9B7819461046FFF70CFF12
:1038A000039B93F904301846FFF726FF039B1A6821
:1038B000029B1B8819461046FFF784FF039B5B7928
:1038C0001946029B1879154A0B465B000B441344BA
:1038D000013302461A70039B5B791946029BD87824
:1038E0000E4A0B465B000B441344023302461A7027
:1038F000039B5B791946094A0B465B000B44134452
:1039000001221A7000230593059B184607B05DF845
:1039100004FB00BFD07A0000A8060020AC060020FF
:1039200000B583B00190019B5B7919460F4A0B46A5
:103930005B000B4413441B78012B03D00C498220FD
:10394000FDF761FF019B1B6800211846FFF752FF3E
:10395000019B5B791946054A0B465B000B441344F7
:1039600002221A7000BF03B05DF804FBAC06002011
:10397000D07A000000B58BB00390029101928DF8CF
:103980000330039B5B791946484A0B465B000B44A6
:1039900013441B78002B03D14549B420FDF733FFB6
:1039A000039B9B791A46029B934203D34049B5205F
:1039B000FDF729FF4FF48032029B02FA03F30693CE
:1039C000029B9BB250339BB29B00ADF81630039B19
:1039D0001B6806991846FFF726FF039B1B6806998C
:1039E0001846FFF7AFFE019B23F07F430193039B33
:1039F0005B7919462D4A0B465B000B441344013397
:103A00001B78002B2CD0039B1B68019A0299184647
:103A1000FFF780FE039B1B681846FFF7CAFE09905C
:103A2000099A019BD31A0893099A019B9A4205D2DD
:103A3000089B03F1FF1303F57F430893039B5B7916
:103A400019461A4A0B465B000B44134402331B7899
:103A50001A46089B93420ADA0D230793079B21E03D
:103A6000039B1B68019A02991846FFF753FE9DF8C5
:103A70000330002B0DD0039B1B68BDF816201146A8
:103A80001846FFF781FE039B1B6806991846FFF74F
:103A90004FFE039B1B6806991846FFF7BAFE0023EA
:103AA0000793079B18460BB05DF804FBAC0600209B
:103AB000D07A000000B589B00390029101924FF4D2
:103AC000803306934FF4A073ADF81E3000230593A6
:103AD00030E006990398FFF73FFE0346002B1ED007
:103AE000BDF81E3019460398FFF741FE0346002B30
:103AF00015D006990398FFF796FE06990398FFF7ED
:103B000021FEBDF81E3019460398FFF73DFE2D4AF1
:103B1000029B52F82330059AD2B210469847069B72
:103B20005B000693BDF81E300433ADF81E30059BD4
:103B300001330593059A019B9A42CAD34FF48073CF
:103B4000ADF81E3001210398FFF706FE0346002B57
:103B500014D0BDF81E3019460398FFF708FE03463F
:103B6000002B0BD0BDF81E3019460398FFF70CFE52
:103B7000144A029B52F82330042098474FF4827372
:103B8000ADF81E3002210398FFF7E6FD0346002B37
:103B900014D0BDF81E3019460398FFF7E8FD034620
:103BA000002B0BD0BDF81E3019460398FFF7ECFD33
:103BB000044A029B52F823300520984700BF09B001
:103BC0005DF804FBA806002008B504220021024885
:103BD000FFF770FF00BF08BD0040024000B585B090
:103BE0000190019B002B0AD0074B43F00103039384
:103BF000019B9B010293039B0298984700E000BF42
:103C000005B05DF804FB00BF407B000000B583B049
:103C10000190019B1B68184600F077F80346002BC3
:103C200004D10B494FF4F670FDF7EDFD019B1B68C5
:103C30001F2B02D84FF0A04306E0019B1B6803F046
:103C40001F02019B1A60034B184603B05DF804FB8A
:103C5000107B00000003005000B585B0019001AB5F
:103C60001846FFF7D3FF0390019B012202FA03F3EA
:103C70001946039800F035F800BF05B05DF804FB65
:103C800000B585B0019001AB1846FFF7BFFF039068
:103C9000019B012202FA03F31946039800F02BF866
:103CA00000BF05B05DF804FB00B585B0019001AB25
:103CB0001846FFF7ABFF0390039800F00AF802469E
:103CC000019B22FA03F303F00103184605B05DF8E7
:103CD00004FB82B00190019BD3F81035184602B066
:103CE000704782B001900091019B009AC3F80825AB
:103CF00000BF02B0704782B001900091019B009A12
:103D0000C3F80C2500BF02B0704784B00190019B3E
:103D10005B09029300230393029B002B03D0029BB9
:103D2000012B04D007E04FF0FF33039303E040F290
:103D3000FF33039300BF019B03F01F030193039A1A
:103D4000019B22FA03F303F00103002B14BF0123AC
:103D50000023DBB2184604B0704700B585B001906F
:103D60004FF0A042019B1B6803F5E07340F20C6129
:103D700042F823104FF0A042019B5B6803F5E0730B
:103D800040F20C6142F82310019B1B681846FFF7B4
:103D900063FF019B5B681846FFF75EFF4FF0A04290
:103DA000019B1B6803F5E07340F20D6142F823109C
:103DB0004FF0A042019B5B6803F5E07340F20D6198
:103DC00042F823100420FFF709FF002303931EE0AD
:103DD000019B5B681846FFF767FF0346002B03D083
:103DE000039B002B17D124E0019B1B681846FFF7AB
:103DF00047FF0420FFF7F2FE019B1B681846FFF700
:103E00002BFF0420FFF7EAFE039B01330393039B80
:103E1000082BDDDD00E000BF019B5B681846FFF763
:103E20002FFF0420FFF7DAFE019B5B681846FFF7BF
:103E300013FF05B05DF804FB00B589B00190009157
:103E4000009B0793019B1B788DF80C30019B1B791D
:103E50008DF81030019B5B798DF81130019B9B68C8
:103E6000DBB28DF81230019BDB68DBB28DF81330CA
:103E7000019B1B690593019B5B690693074A079B9E
:103E800052F823300649079A51F8221003AA104627
:103E9000984700BF09B05DF804FB00BFB0060020E2
:103EA000B806002000B587B00390029101920093FC
:103EB000039B1B7805931249059B019A41F8232027
:103EC0001049059B009A41F82320029B5B7B002B45
:103ED00002D00298FFF741FF00230493039B181DB3
:103EE000019B002B01D0084A00E00022059B0299AB
:103EF00000F0CEFA0490049B184607B05DF804FB6E
:103F0000B0060020B8060020393E000082B003460B
:103F10008DF807309DF90730002B0CDB9DF807303A
:103F200003F01F0205499DF907305B09012000FAE3
:103F300002F241F8232000BF02B0704700E100E028
:103F400082B003468DF807309DF90730002B0DDB5A
:103F50009DF8073003F01F0206499DF907305B0901
:103F6000012000FA02F2603341F8232000BF02B0C2
:103F7000704700BF00E100E082B0034600918DF879
:103F800007309DF90730002B0ADB009BDAB20C49A1
:103F90009DF907305201D2B20B4483F800230BE0A5
:103FA000009BDAB207499DF8073003F00F03043B8A
:103FB0005201D2B20B441A7600BF02B0704700BF64
:103FC00000E100E000ED00E082B00190019B03F011
:103FD0006043B3F1005F0CBF01230023DBB218463E
:103FE00002B0704782B00190019B1B0B5BB2184678
:103FF00002B0704700B583B003460A468DF807301B
:1040000013468DF806309DF80630072B03D9084972
:104010006B20FDF7F8FB9DF806209DF9073011464F
:104020001846FFF7A9FF00BF03B05DF804FB00BF0F
:10403000487B000000B583B003468DF807309DF93A
:1040400007301846FFF762FF00BF03B05DF804FBBE
:1040500000B583B003468DF807309DF90730184648
:10406000FFF76EFF00BF03B05DF804FB82B0019064
:104070000B468DF803309DF80330019A134401225A
:104080001A6000BF02B0704784B001900B46ADF8D3
:104090000230BDF80230019A134400221A60BDF8C4
:1040A0000230019A13441B680393039B00BF04B0C2
:1040B000704782B001900B46ADF80230BDF8023077
:1040C000019A13441B68002B14BF01230023DBB2A9
:1040D000184602B0704782B001900091019B009A8F
:1040E000C3F8042300BF02B0704782B00190009172
:1040F000019B009AC3F8082300BF02B0704782B04A
:104100000190019B0622C3F8002500BF02B0704752
:1041100082B00190019B0022C3F8002500BF02B0CD
:10412000704784B0039002910192039B029AC3F8F6
:104130000825039B019AC3F80C2500BF04B0704703
:1041400082B001900091019B009AC3F8242500BF22
:1041500002B0704784B00190019BD3F8C43403933C
:10416000019B039AC3F8C424039B184604B070470C
:1041700082B001900B468DF803309DF80320019B1F
:10418000C3F8882500BF02B0704784B00390029145
:104190000192029A039BC3F84425039B019AC3F83A
:1041A000482500BF04B0704784B00390029101928B
:1041B000029A039BC3F83425039B019AC3F8382560
:1041C00000BF04B0704782B001900091019B009A3B
:1041D000C3F8002200BF02B0704782B00190019B7B
:1041E000D3F84C35184602B0704782B00190019B5D
:1041F000D3F80032184602B0704782B00190019B9C
:10420000D3F83C35184602B0704782B00190019B4C
:104210000122C3F8502500BF02B0704782B0019060
:10422000019B0022C3F8502500BF02B0704782B046
:104230000190019B0122C3F8402500BF02B07047E6
:1042400082B00190019B0022C3F8402500BF02B05C
:104250007047000000B583B00190019B1B681846B1
:1042600000F04FF80346002B04D10B494FF4F670D1
:10427000FDF7C9FA019B1B681F2B02D84FF0A04322
:1042800006E0019B1B6803F01F02019B1A60034BB1
:10429000184603B05DF804FB787B00000003005073
:1042A00000B585B00190084611461A4603468DF8C0
:1042B00003300B468DF8023013468DF8013001AB08
:1042C0001846FFF7C7FF03909DF803209DF80230C2
:1042D0005B001A439DF801309B001A439DF818308B
:1042E0001B0242EA03019DF81C301B04019A19438A
:1042F000039B02F5E07243F8221000BF05B05DF8A1
:1043000004FB84B00190019B5B090293002303939B
:10431000029B002B03D0029B012B04D007E04FF03F
:10432000FF33039303E040F2FF33039300BF019B8D
:1043300003F01F030193039A019B22FA03F303F096
:104340000103002B14BF01230023DBB2184604B085
:10435000704784B0019003230393019B03F0010392
:10436000002B02D04FF402430393019B03F002039E
:10437000002B02D048F201230393019B03F00403B6
:10438000002B02D048F202230393039B184604B08B
:104390007047000000B585B00190009101238DF8B1
:1043A0000F30009B1B7B032B56D801A252F823F041
:1043B000294400004144000001440000C1430000C2
:1043C000009B9B6803F48023002B07D00198FFF724
:1043D00004FF0246009B1B699A420DD1009B9B681B
:1043E00003F48023002B39D10198FFF7F6FE024633
:1043F000009B5B699A4231D000238DF80F302DE08D
:104400000198FFF7EAFE0246009B1B699A4207D11A
:104410000198FFF7F2FE0246009B5B699A421FD0AB
:1044200000238DF80F301BE00198FFF7D6FE0246FF
:10443000009B1B699A4215D000238DF80F3011E0C4
:104440000198FFF7DAFE0246009B1B699A420BD0E7
:1044500000238DF80F3007E000BF06E000BF04E046
:1044600000BF02E000BF00E000BF9DF80F3083F006
:104470000103DBB2002B05D00198FFF749FE01983C
:10448000FFF73DFE9DF80F30184605B05DF804FBC0
:1044900000B58BB00590049103920293049B002B0E
:1044A00003D14A49E720FDF7AEF9049B1A68049B43
:1044B0005B689A4203D14549E820FDF7A4F9059BC2
:1044C0001B791A46342302FB03F3414A1344089331
:1044D000089B93F82D30002B03D008230793079BEC
:1044E00070E0059B1A68059B1B791946394B53F8F8
:1044F000213019461046FEF7EDFB0346002B03D092
:1045000011230793079B5DE0089B039A1A60089BA1
:10451000029A5A60089B00229A60089B002283F846
:104520003020089B002283F82F20049B5A7B089B95
:1045300083F83220049B186800230193062300931C
:10454000032300220021FFF7ABFE049B58680023E1
:10455000019306230093032300220021FFF7A0FE0E
:10456000059B1B680993049B1968049B5B681A46AA
:104570000998FFF7D6FD049B9B6819460998FFF739
:10458000DFFD089B1B68002B15D0059B1B68184698
:10459000FFF728FD03461A46049B1B7B194610466D
:1045A000FFF728FD059B1B681846FFF71BFD034618
:1045B0001846FFF73FFD089B012283F82D200023BA
:1045C0000793079B18460BB05DF804FBB07B000017
:1045D000C0060020F07B000000B585B00190019B73
:1045E0001B791A46342302FB03F30D4A1344039349
:1045F000039B93F82D30012B04D00A4940F24F1051
:10460000FDF701F9019B1B681846FFF778FD039B36
:10461000022283F82D2000BF05B05DF804FB00BF27
:10462000C0060020B07B000000B583B0019000916F
:10463000009B03F00103002B03D00198FFF7E5FD79
:1046400002E00198FFF7EAFD009B03F00203002B54
:1046500003D00198FFF7EBFD02E00198FFF7F0FDB2
:1046600000BF03B05DF804FB30B589B00390029140
:10467000019200930023079308238DF81B30039BBE
:10468000002283F82E20019BDB681846FFF79CFC74
:10469000034683F00103DBB2002B03D01023079302
:1046A000079BFDE19D490298FFF71FFD039B93F8CF
:1046B0002F30DBB2002B09D0039B9B681946029870
:1046C000FFF709FD11230793079BE9E1009B03F026
:1046D0000403002B06D1009B03F01003002B01D133
:1046E000012300E0002303F00103DAB2039B83F807
:1046F0002F20039B019A03F10C0415460FCD0FC424
:104700002B682360009B1B0903F00103002B14BFDF
:1047100001230023DAB2039B83F83020039B009A25
:104720001A62019B5B7819460298FFF721FD4FF44E
:1047300082710298FFF7A8FC4FF492710298FFF77C
:10474000A3FC4FF4B0710298FFF79EFC4FF4A471E4
:104750000298FFF799FC00990298FFF765FF019B0B
:104760001B78032B00F2DE8001A252F823F000BF79
:10477000A3480000EB4800004B48000081470000C0
:10478000009B03F01003002B04D065494FF4D9704F
:10479000FDF739F8009B03F00803002B04D06049B3
:1047A00040F2B310FDF72FF8009B03F00403002B39
:1047B00004D05B494FF4DA70FDF725F8019B1B69C3
:1047C0001846FFF701FC034683F00103DBB2002B20
:1047D00003D010230793079B62E14FF48071029886
:1047E000FFF7F1FC019BD968019B5B681A460298B0
:1047F000FFF7CBFC4FF4A8710298FFF745FC20218E
:104800000298FFF733FC08210298FFF72FFC00BF46
:104810004FF4A8710298FFF74CFC034683F00103A4
:10482000DBB2002BF4D14FF4A8710298FFF72CFCF7
:10483000019B1969019B9B681A460298FFF7A5FC2A
:10484000039B4FF480229A606FE0019BD968019B23
:104850005B681A460298FFF798FC019B1B69184693
:10486000FFF7B2FB034683F00103DBB2002B03D05A
:1048700010230793079B13E1019B1969019B9B6818
:104880001A460298FFF790FC4FF484510298FFF704
:104890009AFC039B02229A6020210298FFF7E6FB14
:1048A00043E0019BD968019B5B681A460298FFF7B9
:1048B0006CFC009B03F02003002B09D04FF48071A7
:1048C0000298FFF780FC039B4FF480229A6007E078
:1048D0004FF400710298FFF776FC039B02229A6066
:1048E00020210298FFF7C2FB1FE0019BD968019BC2
:1048F0005B681A460298FFF757FC4FF48051029804
:10490000FFF761FC039B02229A6000238DF81B30A5
:1049100020210298FFF7AAFB07E000BF02029C01DA
:10492000B07B00000723079300BF009B03F0080340
:10493000002B09D1019B1B78032B05D09DF81B3060
:1049400019460298FFF792FB039B1B68002B1FD0B0
:10495000009B03F00403002B02D0039B00229A600B
:10496000009B03F04003002B05D1039B9B6843F0A1
:104970000202039B9A60039B9B6843F40072039BB3
:104980009A60039B9B6819460298FFF7A4FB86E098
:1049900000238DF81A304FF4A4710298FFF789FBB9
:1049A0000346002B02D001238DF81A304FF4827198
:1049B0000298FFF77EFB0346002B07D04FF482716D
:1049C0000298FFF761FB01238DF81A304FF49271C2
:1049D0000298FFF76EFB0346002B38D04FF492711C
:1049E0000298FFF751FB4FF4B0710298FFF761FB9B
:1049F00003468DF819300298FFF7F7FB05909DF8F4
:104A0000193083F00103DBB2002B04D1059B03F4C2
:104A10000073002B0AD120210298FFF727FB1421F5
:104A20000298FFF723FB00238DF81A309DF8193008
:104A3000002B0CD0059B03F48073002B07D04FF4A0
:104A4000A4710298FFF720FB00238DF81A309DF81F
:104A50001A3083F00103DBB2002B9CD10298FFF7E0
:104A600079FB0490039B002283F82F20049B002BEA
:104A700004D00498FFF76DFC079010E0009B03F052
:104A80004003002B0BD103990298FFF783FC0346E8
:104A900083F00103DBB2002B01D003230793079BB4
:104AA000184609B030BD00BF00B587B00390029131
:104AB0000192039B1B79002B09D1029B5B68B3F524
:104AC000803F04D2029B9B68B3F5803F04D31B490F
:104AD00040F26A20FCF797FE00230593039B1B79A5
:104AE0001A46342302FB03F3154A13440493049B30
:104AF0001B68002B08D1029B1B78022B04D10F49A5
:104B000040F27220FCF77FFE049B1B68002B08D14B
:104B1000029B1B78032B04D1084940F27320FCF759
:104B200072FE039B1968019B029A0498FFF79CFD93
:104B30000590059B184607B05DF804FBB07B0000AC
:104B4000C006002000B58BB00390019200930B4685
:104B50008DF80B3000238DF814309DF80B308DF854
:104B60001530009B069300230793019B08930023B5
:104B700009939DF83030002B01D0202200E0002264
:104B800005AB19460398FFF78FFF034618460BB095
:104B90005DF804FB00B58BB00390019200930B46C7
:104BA0008DF80B3001238DF814309DF80B308DF803
:104BB0001530009B069300230793019B0893002365
:104BC000099305AB002219460398FFF76DFF0346D2
:104BD00018460BB05DF804FB30B58BB00190009126
:104BE000009B1B68002B04D1A24940F2C120FCF7B6
:104BF0000AFE4FF492710198FFF75BFA0346002B0F
:104C00003ED04FF492710198FFF73EFA4FF4827153
:104C10000198FFF74EFA034683F00103DBB2002B45
:104C20002ED0009B9B6819460198FFF75EFA009B07
:104C300002229A60009B9B6819460198FFF74BFA85
:104C40004FF4B0710198FFF734FA034683F0010383
:104C5000DBB2002B07D10198FFF7C7FA034603F434
:104C60000073002B07D120210198FFF7FFF91421D1
:104C70000198FFF7FBF9009B012283F82E20F6E054
:104C80004FF482710198FFF714FA0346002B5DD0B0
:104C90004FF482710198FFF7F7F9009B1B6A03F04C
:104CA0004003002B1AD1009B93F82E3083F00103B0
:104CB000DBB2002B12D000990198FFF76BFB034683
:104CC000002B14BF01230023DBB283F00103DBB20E
:104CD00003F00103DAB2009B83F82E20009B1B6ACD
:104CE00003F00403002B79D1009B04AC03F10C0505
:104CF0000FCD0FC42B6823604FF4B0710198FFF7FC
:104D0000C3F94FF4AE710198FFF7BEF9009B93F819
:104D1000303083F00103DBB2002B04D1009B93F809
:104D20002E30002B5AD000210198FFF74CFA009B3F
:104D300000229A6050490198FFF7D7F90198FFF7D0
:104D400051F903461846FFF783F947E04FF4A47181
:104D50000198FFF799F9009B1B7B002B22D1009B48
:104D600004AC03F10C050FCD0FC42B682360009B2E
:104D700093F8303083F00103DBB2002B2ED00021FA
:104D80000198FFF720FA009B00229A603A490198A7
:104D9000FFF7ABF90198FFF725F903461846FFF72F
:104DA00057F91BE04FF400710198FFF70CFA009BD4
:104DB00040F202229A6030490198FFF796F9009B71
:104DC0009B6819460198FFF786F908210198FFF7BB
:104DD0004DF920210198FFF749F948E00198FFF7C4
:104DE000B9F90990099B03F00203002B03D00123BA
:104DF0008DF80C301DE0099B03F00403002B03D059
:104E000002238DF80C3014E0099B03F00103002B02
:104E100003D003238DF80C300BE0009B93F82E3069
:104E2000002B03D004238DF80C3002E000238DF812
:104E30000C30009B93F8303083F00103DBB2002B81
:104E400003D0009B002283F82F20009B1B6A03F0F5
:104E50000403002B04D0009B93F82E30002B06D0C7
:104E6000009B1B68009A516803AA104698470BB034
:104E700030BD00BFB07B000002029C0108B50349B1
:104E80000348FFF7A9FE00BF08BD00BFC006002011
:104E90000030004084B001900B46ADF80230BDF800
:104EA0000230019A134400221A60BDF80230019AC0
:104EB00013441B680393039B00BF04B0704782B088
:104EC00001900B46ADF80230BDF80230019A134450
:104ED0001B68002B14BF01230023DBB2184602B06D
:104EE0007047000000B583B00190019B1B68184615
:104EF00000F05AF80346002B04D10B494FF4F6702A
:104F0000FCF781FC019B1B681F2B02D84FF0A043CC
:104F100006E0019B1B6803F01F02019B1A60034B14
:104F2000184603B05DF804FB247C00000003005029
:104F300000B585B0019001AB1846FFF7D3FF039091
:104F4000019B012202FA03F31946039800F018F8B6
:104F500000BF05B05DF804FB00B585B0019001AB62
:104F60001846FFF7BFFF0390019B012202FA03F3EB
:104F70001946039800F00EF800BF05B05DF804FB79
:104F800082B001900091019B009AC3F8082500BFF0
:104F900002B0704782B001900091019B009AC3F863
:104FA0000C2500BF02B0704784B00190019B5B09E3
:104FB000029300230393029B002B03D0029B012B3F
:104FC00004D007E04FF0FF33039303E040F2FF33D8
:104FD000039300BF019B03F01F030193039A019BFE
:104FE00022FA03F303F00103002B14BF0123002373
:104FF000DBB2184604B0704700B583B00190019B46
:10500000DB7FFF2B0ED0019B9B7F002B05D0019BEC
:10501000DB7F1846FFF7A0FF04E0019BDB7F18460B
:10502000FFF786FF019B00225A77019B00221A722C
:10503000019B1B68019A02F10800019A526811460F
:10504000984700BF03B05DF804FB000000B583B0D3
:10505000019000914FF48C710198FFF730FF0346E7
:10506000002B10D04FF48C710198FFF713FF009BB9
:105070001B68002B04D1064940F29720FCF7C3FBC4
:105080000098FFF7B9FF00BF03B05DF804FB00BF55
:105090005C7C000008B503494FF04020FFF7D6FFC5
:1050A00000BF08BDF406002000B583B00190009158
:1050B000019B002B01D1054B019300990198FEF74C
:1050C000F1F80346184603B05DF804FB107E0000BB
:1050D00000B583B00190019B1B68184600F08FF863
:1050E0000346002B04D10B494FF4F670FCF78BFB01
:1050F000019B1B681F2B02D84FF0A04306E0019BC9
:105100001B6803F01F02019B1A60034B184603B093
:105110005DF804FB9C7C00000003005000B585B0E6
:105120000190084611461A4603468DF803300B4697
:105130008DF8023013468DF8013001AB1846FFF7A9
:10514000C7FF03909DF803209DF802305B001A43CF
:105150009DF801309B001A439DF818301B0242EA6B
:1051600003019DF81C301B04019A1943039B02F5AF
:10517000E07243F8221000BF05B05DF804FB00B5F3
:1051800085B00390002301930023009300230122A4
:1051900001210398FFF7C2FF00BF05B05DF804FBD3
:1051A00000B585B0039000230193002300930023F2
:1051B000012200210398FFF7B1FF00BF05B05DF8A1
:1051C00004FB00B585B0019001AB1846FFF780FFE6
:1051D0000390019B012202FA03F31946039800F0A1
:1051E00004F800BF05B05DF804FB82B001900091A7
:1051F000019B009AC3F8082500BF02B0704784B035
:105200000190019B5B09029300230393029B002BF7
:1052100003D0029B012B04D007E04FF0FF33039330
:1052200003E040F2FF33039300BF019B03F01F0331
:105230000193039A019B22FA03F303F00103002B6D
:1052400014BF01230023DBB2184604B0704782B0BC
:1052500001900B468DF803309DF80320019B134409
:105260001A460123136000BF02B0704700B583B037
:105270000190019B1B6808211846FFF7E8FF00BF5B
:1052800003B05DF804FB000082B00346ADF80630C1
:10529000BDF9063007EE903AB8EEE77ADFED096A1D
:1052A000C7EE267A9FED087A67EE877A9FED077A38
:1052B00067EE877AB1EE087A67EE877AB0EE670A12
:1052C00002B0704700F07F459A99193F00007A4478
:1052D00000B585B0019001990020FEF7D1F8039048
:1052E000039B002B0BD0084A084BD31ADB081B0486
:1052F00043F00103039A06491846FBF7DFFC039BC2
:10530000184605B05DF804FBD46D00008C6D0000FC
:10531000CC7C000000B583B00190019B1B78022B70
:105320000AD1074A074BD31ADB081B0443F00303D7
:1053300005491846FBF7B4FC00BF03B05DF804FB59
:10534000D46D00008C6D0000F07C000000B585B0CD
:105350002A4B1B7883F00103DBB2002B0BD0284AC9
:10536000284BD31ADB081B0443F0020326491846D6
:10537000FBF796FC3EE00023ADF802300DF102038E
:105380001846FFF7A5FF0390039B002B19D1BDF929
:1053900002301846FFF778FF8DED020A184A194BC4
:1053A000D31ADB081B0443F00300BDF902301A4690
:1053B000DDED027AFDEEE77A17EE903A1349FBF73E
:1053C0008EFC4FF0A043D3F804350193019BDB43DF
:1053D0004FF0A04203F40053C2F808354FF0A0424A
:1053E000019B03F40053C2F80C35094B1B680133D1
:1053F000074A136005B05DF804FB00BF1C070020DE
:10540000D46D00008C6D0000107D0000387D000020
:105410001807002000B587B003468DF807309DF8C7
:105420000730002B40D1224B1B78002B02D0FFF716
:105430008DFF0AE01F4A204BD31ADB081B0443F000
:1054400002031E491846FBF72BFC1D4B1B78002B53
:1054500001D001F075F84FF0A043D3F8043505935F
:10546000059BDB434FF0A04203F48043C2F80835AC
:105470004FF0A042059B03F48043C2F80C35114B5A
:105480001A68012300211048FEF774FA0490049B67
:105490000393039B002B04D00C4AED210398FCF7E7
:1054A000BFF80948FFF7E2FE00BF07B05DF804FB54
:1054B0001C070020D46D00008C6D0000507D0000A2
:1054C0001D07002044000020087E00007C7D0000B5
:1054D00000B583B0FDF756F90190019B0093009B46
:1054E000002B04D0054AF8210098FCF799F8002019
:1054F000FDF7A6F900BF03B05DF804FB7C7D00005A
:1055000000B587B040F2FF33ADF8043001AB154A67
:1055100019461548FEF792F90590059B0493049BE4
:10552000002B05D0114A4FF484710498FCF778F8E9
:105530000F4B1A68012300210B48FEF71BFA059058
:10554000059B0393039B002B05D0084A40F20B11E7
:105550000398FCF765F80448FEF7E2F900BF07B0CE
:105560005DF804FB15540000087E00007C7D0000FF
:105570004400002008B50220FFF712FE00BF08BD5E
:1055800000B589B001238DF8133002238DF8103057
:1055900000238DF8113006238DF8123004AB284912
:1055A0001846FFF781FD0790079B0693069B002B8B
:1055B00005D0244A4FF496710698FCF731F8002381
:1055C0008DF8073000238DF8063002238DF808305F
:1055D00000238DF8093001238DF80B3000238DF85E
:1055E0000C3000238DF8043000238DF8053001AB1A
:1055F00019460020FDF7C6FE0790079B0593059B03
:10560000002B05D00F4A40F23F110598FCF708F82F
:105610000D4A0E4BD31ADB081B0443F003030C495D
:105620001846FBF73DFB00BFFDF7D6FF0346002BF6
:10563000FAD1084B01221A7000BF09B05DF804FBD3
:10564000155300007C7D0000D46D00008C6D0000BF
:10565000D07D00001C07002000B583B00021002091
:10566000FBF74EF80190019B0093009B002B05D0A7
:10567000054A4FF4A8710098FBF7D2FFFAF7D6FF5E
:1056800000BF03B05DF804FB7C7D000000B583B073
:10569000002301930DE00122019B02FA03F303F4BE
:1056A000F033002B02D00198FFF769FD019B013315
:1056B0000193019B1F2BEED94FF0A0434FF4F03222
:1056C000C3F808254FF0A0430022C3F80C2500239F
:1056D0008DF8033000238DF802304FF08043012213
:1056E000C3F87825214A224BD31ADB081B0443F068
:1056F000030320491846FBF7D3FAFFF7ADFFFFF786
:1057000039FFFFF7E5FE01F035F92820FFF737FDF7
:105710002820FFF756FD00F083FB0346002B14BF43
:10572000012300238DF802309DF80230002B0FD0AA
:105730000E4A0F4BD31ADB081B0443F003030E4938
:105740001846FBF7ADFA00F019FC0C4B01221A7059
:10575000FFF716FFFFF7D4FE00BFFBF713FB03466E
:10576000002BFAD1FCF794FFF6E700BFD46D0000E0
:105770008C6D0000F07D0000FC7D00001D07002006
:1057800000B583B01F4B0193019B02221A61019B5C
:1057900002225A61019B1C4A9A61019B1B4ADA61F1
:1057A000019B4FF400721A62019B00229A62019BD6
:1057B00000225A62019B0022DA62019B124A9A641B
:1057C000019B134ADA64019B10221A65019B002297
:1057D0009A65019B00225A65019B0022DA65019BB4
:1057E00007330C49184601F07FFA019B0A49184615
:1057F00001F07AFA019B20229A7100BF03B05DF894
:1058000004FB00BF20070020147E00009807002042
:1058100098090020207E0000247E000000B589B099
:1058200003900291019200230693039BDB6805938A
:10583000039B1B690493049A059B9A4205D9049A19
:10584000059BD31A013B079307E0039B9A680499D1
:10585000059BCB1A1344013B0793039B9A68059B56
:10586000D31A079A934228BF13460793079A019BBE
:10587000934228BF13460793039B5A68059B134422
:10588000079A0299184601F006FA069A079B1344F4
:105890000693029A079B13440293019A079BD31A1B
:1058A0000193059A079B13440593039B9B68059AF4
:1058B0009A4201D100230593039B059ADA60019B6C
:1058C000002BB5D1069B184609B05DF804FB00B566
:1058D00089B0039002910192039BDB680793039BBD
:1058E0009A68079BD31A0693069A019B9A420ED98F
:1058F000039B5A68079B1344019A0299184601F0CA
:10590000CAF9079A019B1A44039BDA601AE0069BC6
:105910000593039B5A68079B1344059A02991846FE
:1059200001F0B9F9019A069BD31A0593039B5868B5
:10593000029A069B1344059A194601F0ACF9039BA1
:10594000059ADA6000BF09B05DF804FB86B00190EB
:10595000019B1B690493019BDB680393049A039BDF
:105960009A4208D8019B9A68039BD21A049B13445D
:10597000013B059304E0049A039BD31A013B059372
:10598000059B184606B0704700B589B00390029198
:105990000192029B0693039B5A1C13465B0013441F
:1059A000DB00204A13440593059B5B69022B29D039
:1059B000022B2ED8002B02D0012B13D029E0059802
:1059C000FFF7C4FF0490049A019B9A4202D200237D
:1059D000079321E0019B0793019A06990598FFF729
:1059E00076FF19E00598FFF7B1FF0490019A049B38
:1059F000934228BF13460793079A06990598FFF725
:105A000066FF09E0019A06990598FFF707FF0790DE
:105A100002E00023079300BF079B184609B05DF81A
:105A200004FB00BF2007002008B5FFF7A9FE00BF58
:105A300008BD0000BFF34F8F00BF064BDB6803F4C7
:105A4000E0620449044B1343CB60BFF34F8F00BFA8
:105A500000BFFDE700ED00E00400FA0582B0114B45
:105A60001B680193104B1B680093019B0D2B14D1F5
:105A7000009B022B0DD0009B022B0CD8009B002B0F
:105A800003D0009B012B02D005E0012306E0012397
:105A900004E0012302E0012300E00023184602B0E5
:105AA000704700BF300100103401001082B0114B6C
:105AB0001B680193104B1B680093019B0D2B14D1A5
:105AC000009B022B0DD0009B022B0CD8009B002BBF
:105AD00003D0009B012B02D005E0012306E0012347
